{
  "_format": "hh-sol-artifact-1",
  "contractName": "ReputationTokenFactory",
  "sourceName": "contracts/ReputationTokenFactory.sol",
  "abi": [
    {
      "anonymous": false,
      "inputs": [
        {
          "indexed": false,
          "internalType": "uint8",
          "name": "version",
          "type": "uint8"
        }
      ],
      "name": "Initialized",
      "type": "event"
    },
    {
      "anonymous": false,
      "inputs": [
        {
          "indexed": true,
          "internalType": "address",
          "name": "previousOwner",
          "type": "address"
        },
        {
          "indexed": true,
          "internalType": "address",
          "name": "newOwner",
          "type": "address"
        }
      ],
      "name": "OwnershipTransferred",
      "type": "event"
    },
    {
      "anonymous": false,
      "inputs": [
        {
          "indexed": true,
          "internalType": "address",
          "name": "token",
          "type": "address"
        },
        {
          "indexed": false,
          "internalType": "address",
          "name": "creator",
          "type": "address"
        }
      ],
      "name": "TokenCreated",
      "type": "event"
    },
    {
      "anonymous": false,
      "inputs": [
        {
          "indexed": true,
          "internalType": "address",
          "name": "tokenImplementation",
          "type": "address"
        }
      ],
      "name": "TokenImplementationUpdated",
      "type": "event"
    },
    {
      "inputs": [
        {
          "internalType": "string",
          "name": "_name",
          "type": "string"
        },
        {
          "internalType": "string",
          "name": "_symbol",
          "type": "string"
        },
        {
          "internalType": "uint8",
          "name": "_decimals",
          "type": "uint8"
        },
        {
          "internalType": "address",
          "name": "_owner",
          "type": "address"
        },
        {
          "internalType": "bool",
          "name": "_transferable",
          "type": "bool"
        },
        {
          "internalType": "bool",
          "name": "_burnable",
          "type": "bool"
        }
      ],
      "name": "create",
      "outputs": [
        {
          "internalType": "address",
          "name": "",
          "type": "address"
        }
      ],
      "stateMutability": "nonpayable",
      "type": "function"
    },
    {
      "inputs": [
        {
          "internalType": "address",
          "name": "_owner",
          "type": "address"
        }
      ],
      "name": "initialize",
      "outputs": [],
      "stateMutability": "nonpayable",
      "type": "function"
    },
    {
      "inputs": [],
      "name": "owner",
      "outputs": [
        {
          "internalType": "address",
          "name": "",
          "type": "address"
        }
      ],
      "stateMutability": "view",
      "type": "function"
    },
    {
      "inputs": [],
      "name": "renounceOwnership",
      "outputs": [],
      "stateMutability": "nonpayable",
      "type": "function"
    },
    {
      "inputs": [],
      "name": "tokenImplementation",
      "outputs": [
        {
          "internalType": "address",
          "name": "",
          "type": "address"
        }
      ],
      "stateMutability": "view",
      "type": "function"
    },
    {
      "inputs": [
        {
          "internalType": "address",
          "name": "newOwner",
          "type": "address"
        }
      ],
      "name": "transferOwnership",
      "outputs": [],
      "stateMutability": "nonpayable",
      "type": "function"
    },
    {
      "inputs": [
        {
          "internalType": "address",
          "name": "_tokenImplementation",
          "type": "address"
        }
      ],
      "name": "updateTokenImplementation",
      "outputs": [],
      "stateMutability": "nonpayable",
      "type": "function"
    }
  ],
  "bytecode": "0x608060405234801561001057600080fd5b50615fe5806100206000396000f3fe608060405234801561001057600080fd5b506004361061007d5760003560e01c8063c4d66de81161005b578063c4d66de8146100c8578063d20dd349146100e4578063f1d8e50d14610100578063f2fde38b146101305761007d565b80632f3a3d5d14610082578063715018a6146100a05780638da5cb5b146100aa575b600080fd5b61008a61014c565b60405161009791906108d1565b60405180910390f35b6100a8610172565b005b6100b2610186565b6040516100bf91906108d1565b60405180910390f35b6100e260048036038101906100dd919061092c565b6101b0565b005b6100fe60048036038101906100f9919061092c565b6103f6565b005b61011a60048036038101906101159190610b10565b610485565b60405161012791906108d1565b60405180910390f35b61014a6004803603810190610145919061092c565b610586565b005b606560009054906101000a900473ffffffffffffffffffffffffffffffffffffffff1681565b61017a610609565b6101846000610687565b565b6000603360009054906101000a900473ffffffffffffffffffffffffffffffffffffffff16905090565b60008060019054906101000a900460ff161590508080156101e15750600160008054906101000a900460ff1660ff16105b8061020e57506101f03061074d565b15801561020d5750600160008054906101000a900460ff1660ff16145b5b61024d576040517f08c379a000000000000000000000000000000000000000000000000000000000815260040161024490610c58565b60405180910390fd5b60016000806101000a81548160ff021916908360ff160217905550801561028a576001600060016101000a81548160ff0219169083151502179055505b60405161029690610883565b604051809103906000f0801580156102b2573d6000803e3d6000fd5b50606560006101000a81548173ffffffffffffffffffffffffffffffffffffffff021916908373ffffffffffffffffffffffffffffffffffffffff160217905550606560009054906101000a900473ffffffffffffffffffffffffffffffffffffffff1673ffffffffffffffffffffffffffffffffffffffff1663708fb09c6000806000806040518563ffffffff1660e01b81526004016103569493929190610d64565b600060405180830381600087803b15801561037057600080fd5b505af1158015610384573d6000803e3d6000fd5b50505050610390610770565b61039982610687565b80156103f25760008060016101000a81548160ff0219169083151502179055507f7f26b83ff96e1f2b6a682f133852f6798a09c465da95921460cefb384740249860016040516103e99190610e0a565b60405180910390a15b5050565b6103fe610609565b80606560006101000a81548173ffffffffffffffffffffffffffffffffffffffff021916908373ffffffffffffffffffffffffffffffffffffffff1602179055508073ffffffffffffffffffffffffffffffffffffffff167fe7151c7866f496ff7f58dd2a8d6141c5a6f3ff555e778bc0b0ca6f5f36ee092b60405160405180910390a250565b6000806104b3606560009054906101000a900473ffffffffffffffffffffffffffffffffffffffff166107c1565b90508073ffffffffffffffffffffffffffffffffffffffff167fd5f9bdf12adf29dab0248c349842c3822d53ae2bb4f36352f301630d018c8139336040516104fb91906108d1565b60405180910390a28073ffffffffffffffffffffffffffffffffffffffff1663708fb09c8989898989896040518763ffffffff1660e01b815260040161054696959493929190610ea2565b600060405180830381600087803b15801561056057600080fd5b505af1158015610574573d6000803e3d6000fd5b50505050809150509695505050505050565b61058e610609565b600073ffffffffffffffffffffffffffffffffffffffff168173ffffffffffffffffffffffffffffffffffffffff16036105fd576040517f08c379a00000000000000000000000000000000000000000000000000000000081526004016105f490610f83565b60405180910390fd5b61060681610687565b50565b61061161087b565b73ffffffffffffffffffffffffffffffffffffffff1661062f610186565b73ffffffffffffffffffffffffffffffffffffffff1614610685576040517f08c379a000000000000000000000000000000000000000000000000000000000815260040161067c90610fef565b60405180910390fd5b565b6000603360009054906101000a900473ffffffffffffffffffffffffffffffffffffffff16905081603360006101000a81548173ffffffffffffffffffffffffffffffffffffffff021916908373ffffffffffffffffffffffffffffffffffffffff1602179055508173ffffffffffffffffffffffffffffffffffffffff168173ffffffffffffffffffffffffffffffffffffffff167f8be0079c531659141344cd1fd0a4f28419497f9722a3daafe3b4186f6b6457e060405160405180910390a35050565b6000808273ffffffffffffffffffffffffffffffffffffffff163b119050919050565b600060019054906101000a900460ff166107bf576040517f08c379a00000000000000000000000000000000000000000000000000000000081526004016107b690611081565b60405180910390fd5b565b6000763d602d80600a3d3981f3363d3d373d3d3d363d730000008260601b60e81c176000526e5af43d82803e903d91602b57fd5bf38260781b17602052603760096000f09050600073ffffffffffffffffffffffffffffffffffffffff168173ffffffffffffffffffffffffffffffffffffffff1603610876576040517f08c379a000000000000000000000000000000000000000000000000000000000815260040161086d906110ed565b60405180910390fd5b919050565b600033905090565b614ea28061110e83390190565b600073ffffffffffffffffffffffffffffffffffffffff82169050919050565b60006108bb82610890565b9050919050565b6108cb816108b0565b82525050565b60006020820190506108e660008301846108c2565b92915050565b6000604051905090565b600080fd5b600080fd5b610909816108b0565b811461091457600080fd5b50565b60008135905061092681610900565b92915050565b600060208284031215610942576109416108f6565b5b600061095084828501610917565b91505092915050565b600080fd5b600080fd5b6000601f19601f8301169050919050565b7f4e487b7100000000000000000000000000000000000000000000000000000000600052604160045260246000fd5b6109ac82610963565b810181811067ffffffffffffffff821117156109cb576109ca610974565b5b80604052505050565b60006109de6108ec565b90506109ea82826109a3565b919050565b600067ffffffffffffffff821115610a0a57610a09610974565b5b610a1382610963565b9050602081019050919050565b82818337600083830152505050565b6000610a42610a3d846109ef565b6109d4565b905082815260208101848484011115610a5e57610a5d61095e565b5b610a69848285610a20565b509392505050565b600082601f830112610a8657610a85610959565b5b8135610a96848260208601610a2f565b91505092915050565b600060ff82169050919050565b610ab581610a9f565b8114610ac057600080fd5b50565b600081359050610ad281610aac565b92915050565b60008115159050919050565b610aed81610ad8565b8114610af857600080fd5b50565b600081359050610b0a81610ae4565b92915050565b60008060008060008060c08789031215610b2d57610b2c6108f6565b5b600087013567ffffffffffffffff811115610b4b57610b4a6108fb565b5b610b5789828a01610a71565b965050602087013567ffffffffffffffff811115610b7857610b776108fb565b5b610b8489828a01610a71565b9550506040610b9589828a01610ac3565b9450506060610ba689828a01610917565b9350506080610bb789828a01610afb565b92505060a0610bc889828a01610afb565b9150509295509295509295565b600082825260208201905092915050565b7f496e697469616c697a61626c653a20636f6e747261637420697320616c72656160008201527f647920696e697469616c697a6564000000000000000000000000000000000000602082015250565b6000610c42602e83610bd5565b9150610c4d82610be6565b604082019050919050565b60006020820190508181036000830152610c7181610c35565b9050919050565b7f52657075746174696f6e546f6b656e496d706c656d656e746174696f6e000000600082015250565b6000610cae601d83610bd5565b9150610cb982610c78565b602082019050919050565b7f5254490000000000000000000000000000000000000000000000000000000000600082015250565b6000610cfa600383610bd5565b9150610d0582610cc4565b602082019050919050565b6000819050919050565b6000819050919050565b6000610d3f610d3a610d3584610d10565b610d1a565b610a9f565b9050919050565b610d4f81610d24565b82525050565b610d5e81610ad8565b82525050565b600060c0820190508181036000830152610d7d81610ca1565b90508181036020830152610d9081610ced565b9050610d9f6040830187610d46565b610dac60608301866108c2565b610db96080830185610d55565b610dc660a0830184610d55565b95945050505050565b6000819050919050565b6000610df4610def610dea84610dcf565b610d1a565b610a9f565b9050919050565b610e0481610dd9565b82525050565b6000602082019050610e1f6000830184610dfb565b92915050565b600081519050919050565b60005b83811015610e4e578082015181840152602081019050610e33565b60008484015250505050565b6000610e6582610e25565b610e6f8185610bd5565b9350610e7f818560208601610e30565b610e8881610963565b840191505092915050565b610e9c81610a9f565b82525050565b600060c0820190508181036000830152610ebc8189610e5a565b90508181036020830152610ed08188610e5a565b9050610edf6040830187610e93565b610eec60608301866108c2565b610ef96080830185610d55565b610f0660a0830184610d55565b979650505050505050565b7f4f776e61626c653a206e6577206f776e657220697320746865207a65726f206160008201527f6464726573730000000000000000000000000000000000000000000000000000602082015250565b6000610f6d602683610bd5565b9150610f7882610f11565b604082019050919050565b60006020820190508181036000830152610f9c81610f60565b9050919050565b7f4f776e61626c653a2063616c6c6572206973206e6f7420746865206f776e6572600082015250565b6000610fd9602083610bd5565b9150610fe482610fa3565b602082019050919050565b6000602082019050818103600083015261100881610fcc565b9050919050565b7f496e697469616c697a61626c653a20636f6e7472616374206973206e6f74206960008201527f6e697469616c697a696e67000000000000000000000000000000000000000000602082015250565b600061106b602b83610bd5565b91506110768261100f565b604082019050919050565b6000602082019050818103600083015261109a8161105e565b9050919050565b7f455243313136373a20637265617465206661696c656400000000000000000000600082015250565b60006110d7601683610bd5565b91506110e2826110a1565b602082019050919050565b60006020820190508181036000830152611106816110ca565b905091905056fe608060405234801561001057600080fd5b50614e82806100206000396000f3fe608060405234801561001057600080fd5b50600436106101f05760003560e01c80638da5cb5b1161010f578063a457c2d7116100a2578063d505accf11610071578063d505accf146105f3578063dd62ed3e1461060f578063f1127ed81461063f578063f2fde38b1461066f576101f0565b8063a457c2d71461055b578063a9059cbb1461058b578063b33266da146105bb578063c3cda520146105d7576101f0565b80639ab24eb0116100de5780639ab24eb0146104d55780639cd23707146105055780639dc29fac14610521578063a07c7ce41461053d576101f0565b80638da5cb5b1461044b5780638e539e8c1461046957806392ff0d311461049957806395d89b41146104b7576101f0565b806340c10f1911610187578063708fb09c11610156578063708fb09c146103c557806370a08231146103e1578063715018a6146104115780637ecebe001461041b576101f0565b806340c10f191461032d578063587cde1e146103495780635c19a95c146103795780636fcfff4514610395576101f0565b8063313ce567116101c3578063313ce567146102915780633644e515146102af57806339509351146102cd5780633a46b1a8146102fd576101f0565b806306fdde03146101f5578063095ea7b31461021357806318160ddd1461024357806323b872dd14610261575b600080fd5b6101fd61068b565b60405161020a9190613185565b60405180910390f35b61022d6004803603810190610228919061324f565b61071d565b60405161023a91906132aa565b60405180910390f35b61024b610740565b60405161025891906132d4565b60405180910390f35b61027b600480360381019061027691906132ef565b61074a565b60405161028891906132aa565b60405180910390f35b610299610779565b6040516102a6919061335e565b60405180910390f35b6102b7610791565b6040516102c49190613392565b60405180910390f35b6102e760048036038101906102e2919061324f565b6107a0565b6040516102f491906132aa565b60405180910390f35b6103176004803603810190610312919061324f565b6107d7565b60405161032491906132d4565b60405180910390f35b6103476004803603810190610342919061324f565b61086b565b005b610363600480360381019061035e91906133ad565b610881565b60405161037091906133e9565b60405180910390f35b610393600480360381019061038e91906133ad565b6108ea565b005b6103af60048036038101906103aa91906133ad565b6108fe565b6040516103bc9190613423565b60405180910390f35b6103df60048036038101906103da91906135cb565b610952565b005b6103fb60048036038101906103f691906133ad565b610b0c565b60405161040891906132d4565b60405180910390f35b610419610b55565b005b610435600480360381019061043091906133ad565b610b69565b60405161044291906132d4565b60405180910390f35b610453610bb9565b60405161046091906133e9565b60405180910390f35b610483600480360381019061047e9190613690565b610be3565b60405161049091906132d4565b60405180910390f35b6104a1610c39565b6040516104ae91906132aa565b60405180910390f35b6104bf610c4d565b6040516104cc9190613185565b60405180910390f35b6104ef60048036038101906104ea91906133ad565b610cdf565b6040516104fc91906132d4565b60405180910390f35b61051f600480360381019061051a91906136bd565b610df0565b005b61053b6004803603810190610536919061324f565b610e4d565b005b610545610f52565b60405161055291906132aa565b60405180910390f35b6105756004803603810190610570919061324f565b610f66565b60405161058291906132aa565b60405180910390f35b6105a560048036038101906105a0919061324f565b610fdd565b6040516105b291906132aa565b60405180910390f35b6105d560048036038101906105d09190613807565b611000565b005b6105f160048036038101906105ec919061387c565b61106b565b005b61060d60048036038101906106089190613909565b61116f565b005b610629600480360381019061062491906139ab565b6112b1565b60405161063691906132d4565b60405180910390f35b61065960048036038101906106549190613a17565b611338565b6040516106669190613acc565b60405180910390f35b610689600480360381019061068491906133ad565b611448565b005b60606036805461069a90613b16565b80601f01602080910402602001604051908101604052809291908181526020018280546106c690613b16565b80156107135780601f106106e857610100808354040283529160200191610713565b820191906000526020600020905b8154815290600101906020018083116106f657829003601f168201915b5050505050905090565b6000806107286114cb565b90506107358185856114d3565b600191505092915050565b6000603554905090565b6000806107556114cb565b905061076285828561169c565b61076d858585611728565b60019150509392505050565b600061013060029054906101000a900460ff16905090565b600061079b61177f565b905090565b6000806107ab6114cb565b90506107cc8185856107bd85896112b1565b6107c79190613b76565b6114d3565b600191505092915050565b600043821061081b576040517f08c379a000000000000000000000000000000000000000000000000000000000815260040161081290613bf6565b60405180910390fd5b61086360cd60008573ffffffffffffffffffffffffffffffffffffffff1673ffffffffffffffffffffffffffffffffffffffff168152602001908152602001600020836117bf565b905092915050565b610873611910565b61087d828261198e565b5050565b600060cc60008373ffffffffffffffffffffffffffffffffffffffff1673ffffffffffffffffffffffffffffffffffffffff16815260200190815260200160002060009054906101000a900473ffffffffffffffffffffffffffffffffffffffff169050919050565b6108fb6108f56114cb565b8261199c565b50565b600061094b60cd60008473ffffffffffffffffffffffffffffffffffffffff1673ffffffffffffffffffffffffffffffffffffffff16815260200190815260200160002080549050611ab6565b9050919050565b60008060019054906101000a900460ff161590508080156109835750600160008054906101000a900460ff1660ff16105b806109b0575061099230611b09565b1580156109af5750600160008054906101000a900460ff1660ff16145b5b6109ef576040517f08c379a00000000000000000000000000000000000000000000000000000000081526004016109e690613c88565b60405180910390fd5b60016000806101000a81548160ff021916908360ff1602179055508015610a2c576001600060016101000a81548160ff0219169083151502179055505b610a368787611b2c565b610a3f87611b89565b610a47611c1a565b610a4f611c6b565b8261013060006101000a81548160ff0219169083151502179055508161013060016101000a81548160ff0219169083151502179055508461013060026101000a81548160ff021916908360ff160217905550610aaa84611cc4565b8015610b035760008060016101000a81548160ff0219169083151502179055507f7f26b83ff96e1f2b6a682f133852f6798a09c465da95921460cefb38474024986001604051610afa9190613ced565b60405180910390a15b50505050505050565b6000603360008373ffffffffffffffffffffffffffffffffffffffff1673ffffffffffffffffffffffffffffffffffffffff168152602001908152602001600020549050919050565b610b5d611910565b610b676000611cc4565b565b6000610bb2609960008473ffffffffffffffffffffffffffffffffffffffff1673ffffffffffffffffffffffffffffffffffffffff168152602001908152602001600020611d8a565b9050919050565b600060fe60009054906101000a900473ffffffffffffffffffffffffffffffffffffffff16905090565b6000438210610c27576040517f08c379a0000000000000000000000000000000000000000000000000000000008152600401610c1e90613bf6565b60405180910390fd5b610c3260ce836117bf565b9050919050565b61013060009054906101000a900460ff1681565b606060378054610c5c90613b16565b80601f0160208091040260200160405190810160405280929190818152602001828054610c8890613b16565b8015610cd55780601f10610caa57610100808354040283529160200191610cd5565b820191906000526020600020905b815481529060010190602001808311610cb857829003601f168201915b5050505050905090565b60008060cd60008473ffffffffffffffffffffffffffffffffffffffff1673ffffffffffffffffffffffffffffffffffffffff16815260200190815260200160002080549050905060008114610dc75760cd60008473ffffffffffffffffffffffffffffffffffffffff1673ffffffffffffffffffffffffffffffffffffffff168152602001908152602001600020600182610d7b9190613d08565b81548110610d8c57610d8b613d3c565b5b9060005260206000200160000160049054906101000a90047bffffffffffffffffffffffffffffffffffffffffffffffffffffffff16610dca565b60005b7bffffffffffffffffffffffffffffffffffffffffffffffffffffffff16915050919050565b610df8611910565b8061013060006101000a81548160ff0219169083151502179055507f85db4dad6b877a72076b43874e20478aa2cbf2a4dc80b4a65a7af4cfeb597ffa81604051610e4291906132aa565b60405180910390a150565b610e55611910565b61013060019054906101000a900460ff16610e9c576040517fda38f01000000000000000000000000000000000000000000000000000000000815260040160405180910390fd5b80610ea683610b0c565b1015610ede576040517f22bbb43c00000000000000000000000000000000000000000000000000000000815260040160405180910390fd5b600073ffffffffffffffffffffffffffffffffffffffff168273ffffffffffffffffffffffffffffffffffffffff1603610f44576040517fd92e233d00000000000000000000000000000000000000000000000000000000815260040160405180910390fd5b610f4e8282611d98565b5050565b61013060019054906101000a900460ff1681565b600080610f716114cb565b90506000610f7f82866112b1565b905083811015610fc4576040517f08c379a0000000000000000000000000000000000000000000000000000000008152600401610fbb90613ddd565b60405180910390fd5b610fd182868684036114d3565b60019250505092915050565b600080610fe86114cb565b9050610ff5818585611728565b600191505092915050565b611008611910565b60005b81518110156110675761105a82828151811061102a57611029613d3c565b5b60200260200101516000015183838151811061104957611048613d3c565b5b60200260200101516020015161198e565b808060010191505061100b565b5050565b834211156110ae576040517f08c379a00000000000000000000000000000000000000000000000000000000081526004016110a590613e49565b60405180910390fd5b60006111106111087fe48329057bfd03d55e49b547132e39cffd9c1820ad7b9d4c5307691425d15adf8989896040516020016110ed9493929190613e69565b60405160208183030381529060405280519060200120611da6565b858585611dc0565b905061111b81611deb565b861461115c576040517f08c379a000000000000000000000000000000000000000000000000000000000815260040161115390613efa565b60405180910390fd5b611166818861199c565b50505050505050565b834211156111b2576040517f08c379a00000000000000000000000000000000000000000000000000000000081526004016111a990613f66565b60405180910390fd5b60007f6e71edae12b1b97f4d1f60370fef10105fa2faae0126114a169c64845d6126c98888886111e18c611deb565b896040516020016111f796959493929190613f86565b604051602081830303815290604052805190602001209050600061121a82611da6565b9050600061122a82878787611dc0565b90508973ffffffffffffffffffffffffffffffffffffffff168173ffffffffffffffffffffffffffffffffffffffff161461129a576040517f08c379a000000000000000000000000000000000000000000000000000000000815260040161129190614033565b60405180910390fd5b6112a58a8a8a6114d3565b50505050505050505050565b6000603460008473ffffffffffffffffffffffffffffffffffffffff1673ffffffffffffffffffffffffffffffffffffffff16815260200190815260200160002060008373ffffffffffffffffffffffffffffffffffffffff1673ffffffffffffffffffffffffffffffffffffffff16815260200190815260200160002054905092915050565b6113406130b7565b60cd60008473ffffffffffffffffffffffffffffffffffffffff1673ffffffffffffffffffffffffffffffffffffffff1681526020019081526020016000208263ffffffff168154811061139757611396613d3c565b5b906000526020600020016040518060400160405290816000820160009054906101000a900463ffffffff1663ffffffff1663ffffffff1681526020016000820160049054906101000a90047bffffffffffffffffffffffffffffffffffffffffffffffffffffffff167bffffffffffffffffffffffffffffffffffffffffffffffffffffffff167bffffffffffffffffffffffffffffffffffffffffffffffffffffffff1681525050905092915050565b611450611910565b600073ffffffffffffffffffffffffffffffffffffffff168173ffffffffffffffffffffffffffffffffffffffff16036114bf576040517f08c379a00000000000000000000000000000000000000000000000000000000081526004016114b6906140c5565b60405180910390fd5b6114c881611cc4565b50565b600033905090565b600073ffffffffffffffffffffffffffffffffffffffff168373ffffffffffffffffffffffffffffffffffffffff1603611542576040517f08c379a000000000000000000000000000000000000000000000000000000000815260040161153990614157565b60405180910390fd5b600073ffffffffffffffffffffffffffffffffffffffff168273ffffffffffffffffffffffffffffffffffffffff16036115b1576040517f08c379a00000000000000000000000000000000000000000000000000000000081526004016115a8906141e9565b60405180910390fd5b80603460008573ffffffffffffffffffffffffffffffffffffffff1673ffffffffffffffffffffffffffffffffffffffff16815260200190815260200160002060008473ffffffffffffffffffffffffffffffffffffffff1673ffffffffffffffffffffffffffffffffffffffff168152602001908152602001600020819055508173ffffffffffffffffffffffffffffffffffffffff168373ffffffffffffffffffffffffffffffffffffffff167f8c5be1e5ebec7d5bd14f71427d1e84f3dd0314c0f7b2291e5b200ac8c7c3b9258360405161168f91906132d4565b60405180910390a3505050565b60006116a884846112b1565b90507fffffffffffffffffffffffffffffffffffffffffffffffffffffffffffffffff81146117225781811015611714576040517f08c379a000000000000000000000000000000000000000000000000000000000815260040161170b90614255565b60405180910390fd5b61172184848484036114d3565b5b50505050565b61013060009054906101000a900460ff1661176f576040517fdc8d8db700000000000000000000000000000000000000000000000000000000815260040160405180910390fd5b61177a838383611e49565b505050565b60006117ba7f8b73c3c69bb8fe3d512ecc4cf759cc79239f7b179b0ffacaa9a75d522b39400f6117ad6120c2565b6117b56120cc565b6120d6565b905090565b6000808380549050905060008082905060058311156118355760006117e384612110565b846117ee9190613d08565b9050856117fb8883612209565b60000160009054906101000a900463ffffffff1663ffffffff16111561182357809150611833565b6001816118309190613b76565b92505b505b5b8082101561189557600061184a838361221e565b9050856118578883612209565b60000160009054906101000a900463ffffffff1663ffffffff16111561187f5780915061188f565b60018161188c9190613b76565b92505b50611836565b600081146118e4576118b3866001836118ae9190613d08565b612209565b60000160049054906101000a90047bffffffffffffffffffffffffffffffffffffffffffffffffffffffff166118e7565b60005b7bffffffffffffffffffffffffffffffffffffffffffffffffffffffff16935050505092915050565b6119186114cb565b73ffffffffffffffffffffffffffffffffffffffff16611936610bb9565b73ffffffffffffffffffffffffffffffffffffffff161461198c576040517f08c379a0000000000000000000000000000000000000000000000000000000008152600401611983906142c1565b60405180910390fd5b565b6119988282612244565b5050565b60006119a783610881565b905060006119b484610b0c565b90508260cc60008673ffffffffffffffffffffffffffffffffffffffff1673ffffffffffffffffffffffffffffffffffffffff16815260200190815260200160002060006101000a81548173ffffffffffffffffffffffffffffffffffffffff021916908373ffffffffffffffffffffffffffffffffffffffff1602179055508273ffffffffffffffffffffffffffffffffffffffff168273ffffffffffffffffffffffffffffffffffffffff168573ffffffffffffffffffffffffffffffffffffffff167f3134e8a2e6d97e929a7e54011ea5485d7d196dd5f0ba4d4ef95803e8e3fc257f60405160405180910390a4611ab08284836122d1565b50505050565b600063ffffffff8016821115611b01576040517f08c379a0000000000000000000000000000000000000000000000000000000008152600401611af890614353565b60405180910390fd5b819050919050565b6000808273ffffffffffffffffffffffffffffffffffffffff163b119050919050565b600060019054906101000a900460ff16611b7b576040517f08c379a0000000000000000000000000000000000000000000000000000000008152600401611b72906143e5565b60405180910390fd5b611b8582826124ca565b5050565b600060019054906101000a900460ff16611bd8576040517f08c379a0000000000000000000000000000000000000000000000000000000008152600401611bcf906143e5565b60405180910390fd5b611c17816040518060400160405280600181526020017f310000000000000000000000000000000000000000000000000000000000000081525061253d565b50565b600060019054906101000a900460ff16611c69576040517f08c379a0000000000000000000000000000000000000000000000000000000008152600401611c60906143e5565b60405180910390fd5b565b600060019054906101000a900460ff16611cba576040517f08c379a0000000000000000000000000000000000000000000000000000000008152600401611cb1906143e5565b60405180910390fd5b611cc26125b8565b565b600060fe60009054906101000a900473ffffffffffffffffffffffffffffffffffffffff1690508160fe60006101000a81548173ffffffffffffffffffffffffffffffffffffffff021916908373ffffffffffffffffffffffffffffffffffffffff1602179055508173ffffffffffffffffffffffffffffffffffffffff168173ffffffffffffffffffffffffffffffffffffffff167f8be0079c531659141344cd1fd0a4f28419497f9722a3daafe3b4186f6b6457e060405160405180910390a35050565b600081600001549050919050565b611da28282612619565b5050565b6000611db9611db361177f565b83612637565b9050919050565b6000806000611dd18787878761266a565b91509150611dde8161274c565b8192505050949350505050565b600080609960008473ffffffffffffffffffffffffffffffffffffffff1673ffffffffffffffffffffffffffffffffffffffff1681526020019081526020016000209050611e3881611d8a565b9150611e43816128b2565b50919050565b600073ffffffffffffffffffffffffffffffffffffffff168373ffffffffffffffffffffffffffffffffffffffff1603611eb8576040517f08c379a0000000000000000000000000000000000000000000000000000000008152600401611eaf90614477565b60405180910390fd5b600073ffffffffffffffffffffffffffffffffffffffff168273ffffffffffffffffffffffffffffffffffffffff1603611f27576040517f08c379a0000000000000000000000000000000000000000000000000000000008152600401611f1e90614509565b60405180910390fd5b611f328383836128c8565b6000603360008573ffffffffffffffffffffffffffffffffffffffff1673ffffffffffffffffffffffffffffffffffffffff16815260200190815260200160002054905081811015611fb9576040517f08c379a0000000000000000000000000000000000000000000000000000000008152600401611fb09061459b565b60405180910390fd5b818103603360008673ffffffffffffffffffffffffffffffffffffffff1673ffffffffffffffffffffffffffffffffffffffff1681526020019081526020016000208190555081603360008573ffffffffffffffffffffffffffffffffffffffff1673ffffffffffffffffffffffffffffffffffffffff168152602001908152602001600020600082825401925050819055508273ffffffffffffffffffffffffffffffffffffffff168473ffffffffffffffffffffffffffffffffffffffff167fddf252ad1be2c89b69c2b068fc378daa952ba7f163c4a11628f55a4df523b3ef846040516120a991906132d4565b60405180910390a36120bc8484846128cd565b50505050565b6000606554905090565b6000606654905090565b600083838346306040516020016120f19594939291906145bb565b6040516020818303038152906040528051906020012090509392505050565b60008082036121225760009050612204565b6000600161212f846128dd565b901c6001901b905060018184816121495761214861460e565b5b048201901c905060018184816121625761216161460e565b5b048201901c9050600181848161217b5761217a61460e565b5b048201901c905060018184816121945761219361460e565b5b048201901c905060018184816121ad576121ac61460e565b5b048201901c905060018184816121c6576121c561460e565b5b048201901c905060018184816121df576121de61460e565b5b048201901c9050612200818285816121fa576121f961460e565b5b046129be565b9150505b919050565b60008260005281602060002001905092915050565b6000600282841861222f919061463d565b82841661223c9190613b76565b905092915050565b61224e82826129d7565b612256612b2e565b7bffffffffffffffffffffffffffffffffffffffffffffffffffffffff1661227c610740565b11156122bd576040517f08c379a00000000000000000000000000000000000000000000000000000000081526004016122b4906146e0565b60405180910390fd5b6122cb60ce612b5283612b68565b50505050565b8173ffffffffffffffffffffffffffffffffffffffff168373ffffffffffffffffffffffffffffffffffffffff161415801561230d5750600081115b156124c557600073ffffffffffffffffffffffffffffffffffffffff168373ffffffffffffffffffffffffffffffffffffffff16146123eb5760008061239460cd60008773ffffffffffffffffffffffffffffffffffffffff1673ffffffffffffffffffffffffffffffffffffffff168152602001908152602001600020612e3785612b68565b915091508473ffffffffffffffffffffffffffffffffffffffff167fdec2bacdd2f05b59de34da9b523dff8be42e5e38e818c82fdb0bae774387a72483836040516123e0929190614700565b60405180910390a250505b600073ffffffffffffffffffffffffffffffffffffffff168273ffffffffffffffffffffffffffffffffffffffff16146124c45760008061246d60cd60008673ffffffffffffffffffffffffffffffffffffffff1673ffffffffffffffffffffffffffffffffffffffff168152602001908152602001600020612b5285612b68565b915091508373ffffffffffffffffffffffffffffffffffffffff167fdec2bacdd2f05b59de34da9b523dff8be42e5e38e818c82fdb0bae774387a72483836040516124b9929190614700565b60405180910390a250505b5b505050565b600060019054906101000a900460ff16612519576040517f08c379a0000000000000000000000000000000000000000000000000000000008152600401612510906143e5565b60405180910390fd5b816036908161252891906148cb565b50806037908161253891906148cb565b505050565b600060019054906101000a900460ff1661258c576040517f08c379a0000000000000000000000000000000000000000000000000000000008152600401612583906143e5565b60405180910390fd5b600082805190602001209050600082805190602001209050816065819055508060668190555050505050565b600060019054906101000a900460ff16612607576040517f08c379a00000000000000000000000000000000000000000000000000000000081526004016125fe906143e5565b60405180910390fd5b6126176126126114cb565b611cc4565b565b6126238282612e4d565b61263160ce612e3783612b68565b50505050565b6000828260405160200161264c929190614a15565b60405160208183030381529060405280519060200120905092915050565b6000807f7fffffffffffffffffffffffffffffff5d576e7357a4501ddfe92f46681b20a08360001c11156126a5576000600391509150612743565b6000600187878787604051600081526020016040526040516126ca9493929190614a4c565b6020604051602081039080840390855afa1580156126ec573d6000803e3d6000fd5b505050602060405103519050600073ffffffffffffffffffffffffffffffffffffffff168173ffffffffffffffffffffffffffffffffffffffff160361273a57600060019250925050612743565b80600092509250505b94509492505050565b600060048111156127605761275f614a91565b5b81600481111561277357612772614a91565b5b03156128af576001600481111561278d5761278c614a91565b5b8160048111156127a05761279f614a91565b5b036127e0576040517f08c379a00000000000000000000000000000000000000000000000000000000081526004016127d790614b0c565b60405180910390fd5b600260048111156127f4576127f3614a91565b5b81600481111561280757612806614a91565b5b03612847576040517f08c379a000000000000000000000000000000000000000000000000000000000815260040161283e90614b78565b60405180910390fd5b6003600481111561285b5761285a614a91565b5b81600481111561286e5761286d614a91565b5b036128ae576040517f08c379a00000000000000000000000000000000000000000000000000000000081526004016128a590614c0a565b60405180910390fd5b5b50565b6001816000016000828254019250508190555050565b505050565b6128d883838361301c565b505050565b600080600090506000608084901c11156128ff57608083901c92506080810190505b6000604084901c111561291a57604083901c92506040810190505b6000602084901c111561293557602083901c92506020810190505b6000601084901c111561295057601083901c92506010810190505b6000600884901c111561296b57600883901c92506008810190505b6000600484901c111561298657600483901c92506004810190505b6000600284901c11156129a157600283901c92506002810190505b6000600184901c11156129b5576001810190505b80915050919050565b60008183106129cd57816129cf565b825b905092915050565b600073ffffffffffffffffffffffffffffffffffffffff168273ffffffffffffffffffffffffffffffffffffffff1603612a46576040517f08c379a0000000000000000000000000000000000000000000000000000000008152600401612a3d90614c76565b60405180910390fd5b612a52600083836128c8565b8060356000828254612a649190613b76565b9250508190555080603360008473ffffffffffffffffffffffffffffffffffffffff1673ffffffffffffffffffffffffffffffffffffffff168152602001908152602001600020600082825401925050819055508173ffffffffffffffffffffffffffffffffffffffff16600073ffffffffffffffffffffffffffffffffffffffff167fddf252ad1be2c89b69c2b068fc378daa952ba7f163c4a11628f55a4df523b3ef83604051612b1691906132d4565b60405180910390a3612b2a600083836128cd565b5050565b60007bffffffffffffffffffffffffffffffffffffffffffffffffffffffff905090565b60008183612b609190613b76565b905092915050565b6000806000858054905090506000808214612c3757612b9387600184612b8e9190613d08565b612209565b6040518060400160405290816000820160009054906101000a900463ffffffff1663ffffffff1663ffffffff1681526020016000820160049054906101000a90047bffffffffffffffffffffffffffffffffffffffffffffffffffffffff167bffffffffffffffffffffffffffffffffffffffffffffffffffffffff167bffffffffffffffffffffffffffffffffffffffffffffffffffffffff1681525050612c73565b6040518060400160405280600063ffffffff16815260200160007bffffffffffffffffffffffffffffffffffffffffffffffffffffffff168152505b905080602001517bffffffffffffffffffffffffffffffffffffffffffffffffffffffff169350612ca884868863ffffffff16565b9250600082118015612cc3575043816000015163ffffffff16145b15612d3d57612cd183613047565b612ce788600185612ce29190613d08565b612209565b60000160046101000a8154817bffffffffffffffffffffffffffffffffffffffffffffffffffffffff02191690837bffffffffffffffffffffffffffffffffffffffffffffffffffffffff160217905550612e2d565b866040518060400160405280612d5243611ab6565b63ffffffff168152602001612d6686613047565b7bffffffffffffffffffffffffffffffffffffffffffffffffffffffff168152509080600181540180825580915050600190039060005260206000200160009091909190915060008201518160000160006101000a81548163ffffffff021916908363ffffffff16021790555060208201518160000160046101000a8154817bffffffffffffffffffffffffffffffffffffffffffffffffffffffff02191690837bffffffffffffffffffffffffffffffffffffffffffffffffffffffff16021790555050505b5050935093915050565b60008183612e459190613d08565b905092915050565b600073ffffffffffffffffffffffffffffffffffffffff168273ffffffffffffffffffffffffffffffffffffffff1603612ebc576040517f08c379a0000000000000000000000000000000000000000000000000000000008152600401612eb390614d08565b60405180910390fd5b612ec8826000836128c8565b6000603360008473ffffffffffffffffffffffffffffffffffffffff1673ffffffffffffffffffffffffffffffffffffffff16815260200190815260200160002054905081811015612f4f576040517f08c379a0000000000000000000000000000000000000000000000000000000008152600401612f4690614d9a565b60405180910390fd5b818103603360008573ffffffffffffffffffffffffffffffffffffffff1673ffffffffffffffffffffffffffffffffffffffff1681526020019081526020016000208190555081603560008282540392505081905550600073ffffffffffffffffffffffffffffffffffffffff168373ffffffffffffffffffffffffffffffffffffffff167fddf252ad1be2c89b69c2b068fc378daa952ba7f163c4a11628f55a4df523b3ef8460405161300391906132d4565b60405180910390a3613017836000846128cd565b505050565b6130278383836130b2565b61304261303384610881565b61303c84610881565b836122d1565b505050565b60007bffffffffffffffffffffffffffffffffffffffffffffffffffffffff80168211156130aa576040517f08c379a00000000000000000000000000000000000000000000000000000000081526004016130a190614e2c565b60405180910390fd5b819050919050565b505050565b6040518060400160405280600063ffffffff16815260200160007bffffffffffffffffffffffffffffffffffffffffffffffffffffffff1681525090565b600081519050919050565b600082825260208201905092915050565b60005b8381101561312f578082015181840152602081019050613114565b60008484015250505050565b6000601f19601f8301169050919050565b6000613157826130f5565b6131618185613100565b9350613171818560208601613111565b61317a8161313b565b840191505092915050565b6000602082019050818103600083015261319f818461314c565b905092915050565b6000604051905090565b600080fd5b600080fd5b600073ffffffffffffffffffffffffffffffffffffffff82169050919050565b60006131e6826131bb565b9050919050565b6131f6816131db565b811461320157600080fd5b50565b600081359050613213816131ed565b92915050565b6000819050919050565b61322c81613219565b811461323757600080fd5b50565b60008135905061324981613223565b92915050565b60008060408385031215613266576132656131b1565b5b600061327485828601613204565b92505060206132858582860161323a565b9150509250929050565b60008115159050919050565b6132a48161328f565b82525050565b60006020820190506132bf600083018461329b565b92915050565b6132ce81613219565b82525050565b60006020820190506132e960008301846132c5565b92915050565b600080600060608486031215613308576133076131b1565b5b600061331686828701613204565b935050602061332786828701613204565b92505060406133388682870161323a565b9150509250925092565b600060ff82169050919050565b61335881613342565b82525050565b6000602082019050613373600083018461334f565b92915050565b6000819050919050565b61338c81613379565b82525050565b60006020820190506133a76000830184613383565b92915050565b6000602082840312156133c3576133c26131b1565b5b60006133d184828501613204565b91505092915050565b6133e3816131db565b82525050565b60006020820190506133fe60008301846133da565b92915050565b600063ffffffff82169050919050565b61341d81613404565b82525050565b60006020820190506134386000830184613414565b92915050565b600080fd5b600080fd5b7f4e487b7100000000000000000000000000000000000000000000000000000000600052604160045260246000fd5b6134808261313b565b810181811067ffffffffffffffff8211171561349f5761349e613448565b5b80604052505050565b60006134b26131a7565b90506134be8282613477565b919050565b600067ffffffffffffffff8211156134de576134dd613448565b5b6134e78261313b565b9050602081019050919050565b82818337600083830152505050565b6000613516613511846134c3565b6134a8565b90508281526020810184848401111561353257613531613443565b5b61353d8482856134f4565b509392505050565b600082601f83011261355a5761355961343e565b5b813561356a848260208601613503565b91505092915050565b61357c81613342565b811461358757600080fd5b50565b60008135905061359981613573565b92915050565b6135a88161328f565b81146135b357600080fd5b50565b6000813590506135c58161359f565b92915050565b60008060008060008060c087890312156135e8576135e76131b1565b5b600087013567ffffffffffffffff811115613606576136056131b6565b5b61361289828a01613545565b965050602087013567ffffffffffffffff811115613633576136326131b6565b5b61363f89828a01613545565b955050604061365089828a0161358a565b945050606061366189828a01613204565b935050608061367289828a016135b6565b92505060a061368389828a016135b6565b9150509295509295509295565b6000602082840312156136a6576136a56131b1565b5b60006136b48482850161323a565b91505092915050565b6000602082840312156136d3576136d26131b1565b5b60006136e1848285016135b6565b91505092915050565b600067ffffffffffffffff82111561370557613704613448565b5b602082029050602081019050919050565b600080fd5b600080fd5b6000604082840312156137365761373561371b565b5b61374060406134a8565b9050600061375084828501613204565b60008301525060206137648482850161323a565b60208301525092915050565b600061378361377e846136ea565b6134a8565b905080838252602082019050604084028301858111156137a6576137a5613716565b5b835b818110156137cf57806137bb8882613720565b8452602084019350506040810190506137a8565b5050509392505050565b600082601f8301126137ee576137ed61343e565b5b81356137fe848260208601613770565b91505092915050565b60006020828403121561381d5761381c6131b1565b5b600082013567ffffffffffffffff81111561383b5761383a6131b6565b5b613847848285016137d9565b91505092915050565b61385981613379565b811461386457600080fd5b50565b60008135905061387681613850565b92915050565b60008060008060008060c08789031215613899576138986131b1565b5b60006138a789828a01613204565b96505060206138b889828a0161323a565b95505060406138c989828a0161323a565b94505060606138da89828a0161358a565b93505060806138eb89828a01613867565b92505060a06138fc89828a01613867565b9150509295509295509295565b600080600080600080600060e0888a031215613928576139276131b1565b5b60006139368a828b01613204565b97505060206139478a828b01613204565b96505060406139588a828b0161323a565b95505060606139698a828b0161323a565b945050608061397a8a828b0161358a565b93505060a061398b8a828b01613867565b92505060c061399c8a828b01613867565b91505092959891949750929550565b600080604083850312156139c2576139c16131b1565b5b60006139d085828601613204565b92505060206139e185828601613204565b9150509250929050565b6139f481613404565b81146139ff57600080fd5b50565b600081359050613a11816139eb565b92915050565b60008060408385031215613a2e57613a2d6131b1565b5b6000613a3c85828601613204565b9250506020613a4d85828601613a02565b9150509250929050565b613a6081613404565b82525050565b60007bffffffffffffffffffffffffffffffffffffffffffffffffffffffff82169050919050565b613a9781613a66565b82525050565b604082016000820151613ab36000850182613a57565b506020820151613ac66020850182613a8e565b50505050565b6000604082019050613ae16000830184613a9d565b92915050565b7f4e487b7100000000000000000000000000000000000000000000000000000000600052602260045260246000fd5b60006002820490506001821680613b2e57607f821691505b602082108103613b4157613b40613ae7565b5b50919050565b7f4e487b7100000000000000000000000000000000000000000000000000000000600052601160045260246000fd5b6000613b8182613219565b9150613b8c83613219565b9250828201905080821115613ba457613ba3613b47565b5b92915050565b7f4552433230566f7465733a20626c6f636b206e6f7420796574206d696e656400600082015250565b6000613be0601f83613100565b9150613beb82613baa565b602082019050919050565b60006020820190508181036000830152613c0f81613bd3565b9050919050565b7f496e697469616c697a61626c653a20636f6e747261637420697320616c72656160008201527f647920696e697469616c697a6564000000000000000000000000000000000000602082015250565b6000613c72602e83613100565b9150613c7d82613c16565b604082019050919050565b60006020820190508181036000830152613ca181613c65565b9050919050565b6000819050919050565b6000819050919050565b6000613cd7613cd2613ccd84613ca8565b613cb2565b613342565b9050919050565b613ce781613cbc565b82525050565b6000602082019050613d026000830184613cde565b92915050565b6000613d1382613219565b9150613d1e83613219565b9250828203905081811115613d3657613d35613b47565b5b92915050565b7f4e487b7100000000000000000000000000000000000000000000000000000000600052603260045260246000fd5b7f45524332303a2064656372656173656420616c6c6f77616e63652062656c6f7760008201527f207a65726f000000000000000000000000000000000000000000000000000000602082015250565b6000613dc7602583613100565b9150613dd282613d6b565b604082019050919050565b60006020820190508181036000830152613df681613dba565b9050919050565b7f4552433230566f7465733a207369676e61747572652065787069726564000000600082015250565b6000613e33601d83613100565b9150613e3e82613dfd565b602082019050919050565b60006020820190508181036000830152613e6281613e26565b9050919050565b6000608082019050613e7e6000830187613383565b613e8b60208301866133da565b613e9860408301856132c5565b613ea560608301846132c5565b95945050505050565b7f4552433230566f7465733a20696e76616c6964206e6f6e636500000000000000600082015250565b6000613ee4601983613100565b9150613eef82613eae565b602082019050919050565b60006020820190508181036000830152613f1381613ed7565b9050919050565b7f45524332305065726d69743a206578706972656420646561646c696e65000000600082015250565b6000613f50601d83613100565b9150613f5b82613f1a565b602082019050919050565b60006020820190508181036000830152613f7f81613f43565b9050919050565b600060c082019050613f9b6000830189613383565b613fa860208301886133da565b613fb560408301876133da565b613fc260608301866132c5565b613fcf60808301856132c5565b613fdc60a08301846132c5565b979650505050505050565b7f45524332305065726d69743a20696e76616c6964207369676e61747572650000600082015250565b600061401d601e83613100565b915061402882613fe7565b602082019050919050565b6000602082019050818103600083015261404c81614010565b9050919050565b7f4f776e61626c653a206e6577206f776e657220697320746865207a65726f206160008201527f6464726573730000000000000000000000000000000000000000000000000000602082015250565b60006140af602683613100565b91506140ba82614053565b604082019050919050565b600060208201905081810360008301526140de816140a2565b9050919050565b7f45524332303a20617070726f76652066726f6d20746865207a65726f2061646460008201527f7265737300000000000000000000000000000000000000000000000000000000602082015250565b6000614141602483613100565b915061414c826140e5565b604082019050919050565b6000602082019050818103600083015261417081614134565b9050919050565b7f45524332303a20617070726f766520746f20746865207a65726f20616464726560008201527f7373000000000000000000000000000000000000000000000000000000000000602082015250565b60006141d3602283613100565b91506141de82614177565b604082019050919050565b60006020820190508181036000830152614202816141c6565b9050919050565b7f45524332303a20696e73756666696369656e7420616c6c6f77616e6365000000600082015250565b600061423f601d83613100565b915061424a82614209565b602082019050919050565b6000602082019050818103600083015261426e81614232565b9050919050565b7f4f776e61626c653a2063616c6c6572206973206e6f7420746865206f776e6572600082015250565b60006142ab602083613100565b91506142b682614275565b602082019050919050565b600060208201905081810360008301526142da8161429e565b9050919050565b7f53616665436173743a2076616c756520646f65736e27742066697420696e203360008201527f3220626974730000000000000000000000000000000000000000000000000000602082015250565b600061433d602683613100565b9150614348826142e1565b604082019050919050565b6000602082019050818103600083015261436c81614330565b9050919050565b7f496e697469616c697a61626c653a20636f6e7472616374206973206e6f74206960008201527f6e697469616c697a696e67000000000000000000000000000000000000000000602082015250565b60006143cf602b83613100565b91506143da82614373565b604082019050919050565b600060208201905081810360008301526143fe816143c2565b9050919050565b7f45524332303a207472616e736665722066726f6d20746865207a65726f20616460008201527f6472657373000000000000000000000000000000000000000000000000000000602082015250565b6000614461602583613100565b915061446c82614405565b604082019050919050565b6000602082019050818103600083015261449081614454565b9050919050565b7f45524332303a207472616e7366657220746f20746865207a65726f206164647260008201527f6573730000000000000000000000000000000000000000000000000000000000602082015250565b60006144f3602383613100565b91506144fe82614497565b604082019050919050565b60006020820190508181036000830152614522816144e6565b9050919050565b7f45524332303a207472616e7366657220616d6f756e742065786365656473206260008201527f616c616e63650000000000000000000000000000000000000000000000000000602082015250565b6000614585602683613100565b915061459082614529565b604082019050919050565b600060208201905081810360008301526145b481614578565b9050919050565b600060a0820190506145d06000830188613383565b6145dd6020830187613383565b6145ea6040830186613383565b6145f760608301856132c5565b61460460808301846133da565b9695505050505050565b7f4e487b7100000000000000000000000000000000000000000000000000000000600052601260045260246000fd5b600061464882613219565b915061465383613219565b9250826146635761466261460e565b5b828204905092915050565b7f4552433230566f7465733a20746f74616c20737570706c79207269736b73206f60008201527f766572666c6f77696e6720766f74657300000000000000000000000000000000602082015250565b60006146ca603083613100565b91506146d58261466e565b604082019050919050565b600060208201905081810360008301526146f9816146bd565b9050919050565b600060408201905061471560008301856132c5565b61472260208301846132c5565b9392505050565b60008190508160005260206000209050919050565b60006020601f8301049050919050565b600082821b905092915050565b60006008830261478b7fffffffffffffffffffffffffffffffffffffffffffffffffffffffffffffffff8261474e565b614795868361474e565b95508019841693508086168417925050509392505050565b60006147c86147c36147be84613219565b613cb2565b613219565b9050919050565b6000819050919050565b6147e2836147ad565b6147f66147ee826147cf565b84845461475b565b825550505050565b600090565b61480b6147fe565b6148168184846147d9565b505050565b5b8181101561483a5761482f600082614803565b60018101905061481c565b5050565b601f82111561487f5761485081614729565b6148598461473e565b81016020851015614868578190505b61487c6148748561473e565b83018261481b565b50505b505050565b600082821c905092915050565b60006148a260001984600802614884565b1980831691505092915050565b60006148bb8383614891565b9150826002028217905092915050565b6148d4826130f5565b67ffffffffffffffff8111156148ed576148ec613448565b5b6148f78254613b16565b61490282828561483e565b600060209050601f8311600181146149355760008415614923578287015190505b61492d85826148af565b865550614995565b601f19841661494386614729565b60005b8281101561496b57848901518255600182019150602085019450602081019050614946565b868310156149885784890151614984601f891682614891565b8355505b6001600288020188555050505b505050505050565b600081905092915050565b7f1901000000000000000000000000000000000000000000000000000000000000600082015250565b60006149de60028361499d565b91506149e9826149a8565b600282019050919050565b6000819050919050565b614a0f614a0a82613379565b6149f4565b82525050565b6000614a20826149d1565b9150614a2c82856149fe565b602082019150614a3c82846149fe565b6020820191508190509392505050565b6000608082019050614a616000830187613383565b614a6e602083018661334f565b614a7b6040830185613383565b614a886060830184613383565b95945050505050565b7f4e487b7100000000000000000000000000000000000000000000000000000000600052602160045260246000fd5b7f45434453413a20696e76616c6964207369676e61747572650000000000000000600082015250565b6000614af6601883613100565b9150614b0182614ac0565b602082019050919050565b60006020820190508181036000830152614b2581614ae9565b9050919050565b7f45434453413a20696e76616c6964207369676e6174757265206c656e67746800600082015250565b6000614b62601f83613100565b9150614b6d82614b2c565b602082019050919050565b60006020820190508181036000830152614b9181614b55565b9050919050565b7f45434453413a20696e76616c6964207369676e6174757265202773272076616c60008201527f7565000000000000000000000000000000000000000000000000000000000000602082015250565b6000614bf4602283613100565b9150614bff82614b98565b604082019050919050565b60006020820190508181036000830152614c2381614be7565b9050919050565b7f45524332303a206d696e7420746f20746865207a65726f206164647265737300600082015250565b6000614c60601f83613100565b9150614c6b82614c2a565b602082019050919050565b60006020820190508181036000830152614c8f81614c53565b9050919050565b7f45524332303a206275726e2066726f6d20746865207a65726f2061646472657360008201527f7300000000000000000000000000000000000000000000000000000000000000602082015250565b6000614cf2602183613100565b9150614cfd82614c96565b604082019050919050565b60006020820190508181036000830152614d2181614ce5565b9050919050565b7f45524332303a206275726e20616d6f756e7420657863656564732062616c616e60008201527f6365000000000000000000000000000000000000000000000000000000000000602082015250565b6000614d84602283613100565b9150614d8f82614d28565b604082019050919050565b60006020820190508181036000830152614db381614d77565b9050919050565b7f53616665436173743a2076616c756520646f65736e27742066697420696e203260008201527f3234206269747300000000000000000000000000000000000000000000000000602082015250565b6000614e16602783613100565b9150614e2182614dba565b604082019050919050565b60006020820190508181036000830152614e4581614e09565b905091905056fea264697066735822122002723bf82d60bbb3874a2f39c83af1be9f20aec344011a431d1965d7f96767ea64736f6c63430008110033a2646970667358221220f33ec10d500b04b48ef74e0f526aec9fabbfdb170dd8b7ac42756b73a4a866af64736f6c63430008110033",
  "linkReferences": {},
  "deployedLinkReferences": {}
}